:020000040800F2
:10000000B0040020D901000867170008D9160008BD
:1000100065170008DD0800081D1A00080000000030
:10002000000000000000000000000000411800086F
:10003000F508000800000000891700083D190008B5
:10004000F3010008F3010008F3010008F3010008C0
:10005000F3010008F3010008F3010008F3010008B0
:10006000F3010008F3010008F3010008F3010008A0
:10007000F3010008F3010008F3010008F301000890
:10008000F3010008F3010008F3010008F301000880
:10009000F3010008F3010008F3010008F301000870
:1000A000F3010008F3010008F3010008F301000860
:1000B000F3010008F3010008F3010008F301000850
:1000C000F3010008F3010008F3010008F301000840
:1000D000F3010008F3010008F3010008F301000830
:1000E000F3010008F3010008F3010008F301000820
:1000F000F3010008F3010008F3010008F301000810
:10010000F3010008F3010008F3010008F3010008FF
:10011000F3010008F3010008F3010008F3010008EF
:10012000F3010008F3010008F3010008F3010008DF
:10013000F30100080000000000000000F3010008C7
:10014000F3010008F3010008F3010008F3010008BF
:10015000F3010008F3010008F3010008F3010008AF
:10016000F3010008F3010008F3010008F30100089F
:10017000F3010008F3010008F3010008000000008B
:1001800000000000F3010008000000000000000073
:10019000F30100080000000000000000F301000867
:1001A000000000000000000000000000F301000853
:1001B000F3010008F3010008F3010008F30100084F
:1001C000F3010008DFF80CD000F0E4FA0048004723
:1001D0001D1B0008B0040020064880470648004761
:1001E000FEE7FEE7FEE7FEE7FEE7FEE7FEE7FEE7E7
:1001F000FEE7FEE7C9190008C50100082DE9F05F18
:100200000546002092469B46884606468146402485
:100210001BE0284641464746224600F005FA534671
:100220005A46C01A914110D311461846224600F092
:10023000ECF92D1A67EB01084F46224601200021F8
:1002400000F0E3F917EB00094E41201EA4F1010470
:10025000DFDC484631462A464346BDE8F09FD2B22D
:1002600001E000F8012B491EFBD270470022F6E79F
:1002700010B513460A4604461946FFF7F0FF20461C
:1002800010BD2DE9FE4F804681EA0300C00F0C46E9
:10029000009021F0004123F00045B8EB0200A94195
:1002A00005D24046214690461C460B46024623F0A6
:1002B0000040104347D0270DC7F30A00C3F30A518B
:1002C0000290401A019040286BDAC3F3130040F407
:1002D000801B0098924620B10023D2EB030A63EB07
:1002E0000B0B01985946C0F14002504600F08DF9C1
:1002F00006460D4650465946019A00F0A5F910EB06
:1003000008006141002487EA115284EAE7731A4326
:1003100040D0009A62B3019A012A4FEA075215DCD5
:10032000001B61EB02014FF0004202EA0752CDE9E7
:100330000042001C41F5801132462B4600F0DCF9EA
:1003400003B0BDE8F08F40462146F9E7001B61EBA2
:100350000201001C41F5801300185B412018A2F532
:10036000001747EB030140EAD570B6196D4111E063
:100370006D084FEA360645EAC0754FEA0752001B82
:1003800061EB0201001C41F5801149084FEA300081
:100390000019514132462B4603B0BDE8F04F00F042
:1003A0009CB90098012240000023D0EB020263EBCD
:1003B000E073009821464FEAE074B8EB000061EB6F
:1003C0000401E9E783F000435BE781F0004158E76F
:1003D0002DE9FE4F81EA030404F0004421F00041BE
:1003E00000944FF0000B23F0004350EA01045ED06C
:1003F00052EA03045BD0C3F30A54C1F30A552C44F8
:10040000A4F2F3340194A0FB0254C1F3130141F4AC
:100410008011C3F3130343F4801301FB024400FB78
:10042000034E840A970A44EA815447EA8357A4FB9F
:10043000076802958D0A05FB07854FEA932C04FB9C
:100440000C542705029D4FEA065847EA1637B5EBCC
:1004500008056EEB070C870E920E47EA811742EAF9
:100460008312A7FB0201B6EB0B0164EB00042B0D1A
:1004700043EA0C335E1844EB1C50DA465146E7FB66
:100480000201C5F313044FEA0B3343EA14534FEA56
:100490000432019C43EA0603A4F10C040294009C7C
:1004A000CDE900B400F028F903B0BDE8F08F0020DA
:1004B0000146F9E72DE9F04D81EA030404F0004B11
:1004C00021F0004514464FF0000A23F0004150EAA5
:1004D000050220D054EA01021DD0C5F30A57024696
:1004E000C5F31303C1F31300C1F30A5640F480159A
:1004F00043F48013A7EB0608101BD64608F2FD381C
:1005000073EB050002D308F1010801E092185B418A
:10051000B8F1000F03DA00200146BDE8F08D00209D
:100520004FF48011064684460EE0171B73EB050757
:1005300005D3121B63EB050306434CEA010C490883
:100540004FEA300092185B4150EA0107EDD152EAC0
:10055000030012D082EA040083EA0501084305D0B3
:10056000101BAB4106D20122002306E000224FF00F
:10057000004302E06FF0010253101AEB06004CEB4F
:10058000085110EB0A0041EB0B01BDE8F04D00F003
:10059000A4B80EB540F2334102910021CDE900111B
:1005A0000A460B4600F0A8F803B000BD00F0004278
:1005B00030F000400AD0C10D01F56071C0F31600A3
:1005C00042EA0151C208400711437047002001462A
:1005D000704701F0004330B421F0004150EA0102BD
:1005E00006D00A0DA2F56072C1F31301002A02DCE5
:1005F00030BC00207047440F44EAC104C100E01839
:1006000030BC00EBC25000F031B8202A04DB203AA5
:1006100000FA02F1002070479140C2F1200320FA55
:1006200003F3194390407047202A04DB203A21FA53
:1006300002F00021704721FA02F3D040C2F12002FB
:100640009140084319467047202A06DBCB17203A11
:1006500041FA02F043EAE07306E041FA02F3D040C7
:10066000C2F1200291400843194670470029A8BFF3
:100670007047401C490008BF20F00100704710B4CB
:10068000B0FA80FC00FA0CF050EA010404BF10BC80
:10069000704749B1CCF1200421FA04F411FA0CF1AD
:1006A00018BF012121430843A3EB0C01CB1D4FEAE6
:1006B00000614FEA102042BF002010BC704700EBE1
:1006C000C35010440029A4BF10BC7047401C49000F
:1006D00008BF20F0010010BC704710B5141E73F164
:1006E000000408DA401C41F1000192185B411A43F2
:1006F00001D120F0010010BD2DE9F04D92469B463E
:1007000011B1B1FA81F202E0B0FA80F220329046E3
:10071000FFF77BFF04460F4640EA0A0041EA0B015F
:1007200053465A46084313D0114653EA010019D0E4
:10073000C8F140025046FFF777FF05460E46504687
:1007400059464246FFF761FF084305D0012004E007
:1007500020463946BDE8F08D0020054346EAE076A4
:100760002C4337430A986305E40AA0EB08000022F3
:10077000FD0A44EA47540A3002D500200146E9E761
:10078000010510196941DDE9084500196941BDE815
:10079000F04DA2E7064C074D06E0E06840F001038B
:1007A00094E8070098471034AC42F6D3FFF70EFDEB
:1007B000941B0008B41B0008454910B54A6822F490
:1007C00040324A604A6843681A434A6001684A688E
:1007D00022F480724A6001684A68036942EA03228F
:1007E0004A6001684A6822F040724A6001684A68BB
:1007F00083681A434A6001688A6822F400628A604A
:1008000001688A68C3681A438A60816A6FF07062FF
:10081000D14201688A6822F070628A6001688A6841
:100820000CD0836A1A438A6001688A6822F04052B9
:100830008A6001688A68C36A1A4301E022F0405264
:100840008A6001688A6822F002028A6001688A6808
:10085000836942EA43028A60016A002901684A68A2
:100860000FD042F400624A6001684A6822F4604294
:100870004A6001684A68174C436A04EB43331A43E1
:1008800001E022F400624A600168CA6A22F4700240
:10089000CA620168CA6A838B0F4C04EB03531A4384
:1008A000CA6201688A6822F400728A6001688A68F4
:1008B000036B42EA43228A6001688A6822F48062FC
:1008C0008A6001688A68406942EA8020886010BDB9
:1008D0000023014000E0FFFF0000F0FFFEE7000002
:1008E000642301220149024800F02EBE781B000853
:1008F000580000207047000078B50024009490F85C
:100900003C20012A19D0012280F83C200A680723E4
:100910000568092A13D9EE680A3A02EB42029340AD
:100920009E43EE600A788B680A3A02EB42029340DB
:100930000268D5682B43D36010E0022078BD2E6991
:1009400002EB420293409E432E610A788B6802EBD1
:1009500042029340026815692B4313614A681F23C2
:10096000072A13D205686E6B521E02EB8202934077
:100970009E436E630B790A885B1E92B203EB83037E
:100980009A4003685D6B2A435A6327E005680D2A85
:1009900012D22E6BD21F02EB820293409E432E6333
:1009A0000B790A88DB1F92B203EB83039A4003683A
:1009B0001D6B2A431A6311E0EE6A0D3A02EB8202C4
:1009C00093409E43EE620B790A880D3B92B203EB93
:1009D00083039A400368DD6A2A43DA62174B05688D
:1009E000154A9D4206D10D68122D03D1556845F474
:1009F0008005556005689D4219D1114D0B68AB42C9
:100A000001D0112B13D1536843F4000353600968DC
:100A1000A9420CD10B490C4A0968B1FBF2F101EB78
:100A20008101490000E0491E00910029FBD180F8B6
:100A30003C40002078BD0000002301400020014020
:100A4000120000100C00002040420F000068C06C33
:100A5000704770B504004FF0000503D0206C0026ED
:100A600010B107E0012070BD666484F83C60204648
:100A700000F01AF8206CC00610D4206C20F48850C6
:100A800040F0020020642046FFF796FE6664206C6A
:100A900020F0020040F00100206400E0012584F80D
:100AA0003C60284670BD000010B586B00446142195
:100AB0006846FFF7DBFB1149206888421CD11048CB
:100AC0000021026842F480720260006800F48070C5
:100AD00005900B481438026842F001020260006879
:100AE00000F001000590012000900320CDE90101F4
:100AF0006946044800F0CAF806B010BD0020014065
:100B000044380240000002402DE9F04104460068EC
:100B10000D4681684FF0000749050BD58068C00578
:100B200008D5206C40F02000206484F83C7001203F
:100B3000BDE8F08100F07CF906460FE0681C0DD09E
:100B400025B100F075F9801BA84207D9206C40F050
:100B50000400206484F83C700320E9E72068006802
:100B60008007EBD521686FF012000860206C40F41C
:100B7000007020642068816811F0405F13D1A16982
:100B800089B9C16A11F4700F02D0806840050AD497
:100B9000206C20F480702064206CC00403D4206C8E
:100BA00040F0010020640020C2E7000018B50021D9
:100BB000009190F83C20012A07D0012280F83C20C7
:100BC00002689368DB0702D011E0022018BD936829
:100BD00043F001039360204A204B1268B2FBF3F20A
:100BE00002EB420200E0521E0092002AFBD1026892
:100BF0009368DB072DD0036C40F20164A34343F4F8
:100C00008073036453685B0505D5036C23F40053BC
:100C100043F480530364036CDB0404D5436C23F07A
:100C20000603436400E0416480F83C100C496FF017
:100C30002203136049680068C90602D00949884246
:100C400007D1816811F0405F03D1816841F0804194
:100C50008160002018BD00000C00002040420F0001
:100C6000002301400020014070B5044600F0E0F888
:100C70000546601C02D004480078044400F0D8F80F
:100C8000401BA042FAD370BD000000202DE9F84FB0
:100C9000DFF874B100224FF001084FF0030A4FF063
:100CA0000F090BF1040E00BF0B6808FA02F4234091
:100CB000A3426ED14D68022D01D0122D0ED1D50860
:100CC00000EB850CDCF820505607F70E09FA07F602
:100CD000B5430E69BE402E43CCF82060066855002F
:100CE0000F790AFA05FC07F0030726EA0C06AF4065
:100CF000374307604E68012E05D0022E03D0112E17
:100D000001D0122E0ED18668CF6826EA0C06AF40BD
:100D1000374387604668A6430C79C4F300149440B7
:100D200034434460C4688E6824EA0C04AE40264311
:100D3000C6604C68E40060D5344C256845F48045B5
:100D40002560246822F0030504F480440094304CAC
:100D50002E19D6F8084895072F0F09FA07F5AC4366
:100D60002C4DA84201D100251FE02B4DA84201D1F6
:100D700001251AE0294DA84201D1022515E0284D90
:100D8000A84201D1032510E0264DA84202D1042536
:100D90000BE032E0244DA84201D1052505E0234DAA
:100DA000A84201D1062500E00725BD402543C6F82D
:100DB0000858DBF800405D464E689C43F60300D5BA
:100DC0001C432C60DEF8004075464E689C43B60319
:100DD00000D51C432C600C4D08352C684E689C4394
:100DE000F60200D51C432C60074D0C352C684E686C
:100DF0009C43B60200D51C432C60521C102AFFF401
:100E000053AFBDE8F88F0000003C01404438024079
:100E1000003001400000024000040240000802408F
:100E2000000C024000100240001402400018024072
:100E30000148806870470000000000200248816877
:100E40000278114481607047000000200B4810B503
:100E5000016841F400710160016841F48061016042
:100E6000016841F480710160032000F063F8002004
:100E700000F006F800F024F8002010BD003C02400D
:100E800070B50D4D04464FF47A712878B1FBF0F03F
:100E90000A490968B1FBF0F000F00AFC48B9102CCF
:100EA00007D200222146501E00F024F800206C607A
:100EB00070BD012070BD0000000000200C0000206B
:100EC0000B4882B0016841F480410160006800F481
:100ED000804000900648001F016841F08051016089
:100EE000006800F080500090072002B000F022B8A7
:100EF00044380240F0B40E4B1B680C46C3F3022387
:100F0000C3F10705042D00D90425191D072901D2B5
:100F1000002300E0DB1E012606FA05F1491E2140F0
:100F200099409E40761E16403143F0BC00F01CBC38
:100F30000CED00E0064900F0070208684FF6FF03D9
:100F4000184040EA0220034A10430860704700003E
:100F50000CED00E00000FA052DE9F0470E46050013
:100F600065D0DFF81481D8F80000F7B200F00F0068
:100F7000B04207D288F80070D8F8000000F00F00E7
:100F8000B04254D128683D4C810712D5400703D5A3
:100F9000206840F4E05020602878000703D52068DE
:100FA00040F4604020602068A96820F0F000084309
:100FB00020602878C0072DD030496868083901289A
:100FC00012D0022813D0032811D0096889070029FC
:100FD0002DDA216821F0030101432160FFF728FF8A
:100FE000814641F2883A0EE009688903EFE7096813
:100FF0008901ECE7FFF71CFFA0EB0901514502D97D
:101000000320BDE8F0872068696800F00C00B0EBB1
:10101000810FEFD1D8F80010404601F00F01B14226
:1010200007D90770006800F00F00B04201D001201E
:10103000E7E72878400705D52068E96820F4E05004
:10104000084320602878000706D52068296920F425
:10105000604040EAC100206000F016F82168084AAC
:10106000C1F30311515CC840064908600020FFF736
:1010700007FF0020C5E70000003C0240083802409E
:10108000831B00080C000020224810B5006810F0F7
:101090000C02214815D04110042A11D01D4C241FE8
:1010A000082A0FD00C2A0CD12268236802F03F02D4
:1010B0005B0221D52068C0F38810A0FB010120E06D
:1010C000084610BD2268236802F03F025B0205D586
:1010D0002068C0F38810A0FB010104E02168C1F37F
:1010E0008811A1FB00010023FFF788F82168C1F3F4
:1010F0000141491C49000AE02168C1F38811A1FBA4
:1011000000010023FFF77AF82168C1F30271B0FBF8
:10111000F1F010BD083802400024F4002DE9F84F2A
:101120000546DFF828B30078ABF10407C007A7F144
:10113000040451D0DBF800105846C1F381010129A5
:101140000FD00168C1F38101022902D13968490237
:1011500007D40068C0F38100032809D13868400231
:1011600006D52068800337D56868002872D033E040
:101170006868B0F5803F10D0B0F5A02F206810D07F
:1011800020F480302060206820F48020206068688F
:10119000A8B1FFF74DFE06460DE0206840F4803010
:1011A000F4E740F480202060F7E700BFFFF740FE3F
:1011B000801B642878D820688003F7D50CE0FFF7FF
:1011C00037FE064605E000BFFFF732FE801B6428AD
:1011D000F0D820688003F7D42878DFF8749280076D
:1011E0004FF0000A46D5DBF80010584611F00C0FFE
:1011F0000FD00168C1F38101022902D13968490287
:1012000007D50068C0F38100032809D1386840027F
:1012100006D42068800715D5E86801281AD111E0A6
:10122000E868C0B10120C9F80000FFF701FE0646DA
:1012300005E000BFFFF7FCFD801B0228BAD820683C
:101240008007F7D52068296920F0F80040EAC1003E
:1012500020600FE0F7E0C9F800A0FFF7E9FD0646BF
:1012600005E000BFFFF7E4FD801B02281CD82068C2
:101270008007F7D42878000727D5DFF8D081754894
:10128000696908F16C0881B101210160FFF7D0FDA7
:10129000064604E0FFF7CCFD801B022804D8D8F8EE
:1012A00000008007F6D510E089E0C0F800A0FFF745
:1012B000BFFD064605E000BFFFF7BAFD801B022810
:1012C0007DD8D8F800008007F6D42878400769D583
:1012D0005E484FF0000838300068C0000BD45B480F
:1012E0003830016841F08051016000684FF001081A
:1012F00000F080500090584E3068C00511D430681E
:1013000040F480703060FFF793FD009006E000BF6E
:10131000FFF78EFD0099401A022850D83068C005AA
:10132000F6D54A4EA868683601280FD005283068DF
:1013300010D020F001003060306820F004003060F0
:10134000A868B8B1FFF774FD00900FE0306840F076
:101350000100F4E740F004003060F7E7FFF768FDB4
:101360000099411A41F28830814264D83068800780
:10137000F4D50EE0FFF75CFD009007E0FFF758FDA5
:101380000099411A41F28830814254D83068800770
:10139000F4D4B8F1000F05D02C483830016821F0A2
:1013A00080510160A869A8B3DBF80010C1F3810186
:1013B000022948D00228C9F860A005D000E03AE030
:1013C000FFF736FD054639E0FFF732FD064604E03B
:1013D000FFF72EFD801B02282DD820688001F7D44E
:1013E000F5E907010843E9681C4A490802EB014195
:1013F000AA6841EA82110843297C40EA0160297DFC
:1014000040EA017038600120C9F86000FFF710FD64
:10141000054606E015E000BFFFF70AFD401B022865
:1014200009D820688001F7D50BE000BFFFF700FD69
:10143000401B022802D90320BDE8F88F20688001F4
:10144000F4D40020F8E70120F6E700000838024055
:1014500000004742800E4742007000400000FFFF3E
:1014600070B5040005D00025A56294F8510010B1B4
:1014700006E0012070BD84F85050204600F030F89E
:10148000022084F851002068016821F040010160C9
:10149000D4E901010843D4E9031211430843616907
:1014A0000843218B01F400710843E1690843216A74
:1014B0000843A16A084321680860A069042101EA81
:1014C0001040616A0843216848602068C16921F4BE
:1014D0000061C1616565012084F85100002070BD84
:1014E00010B586B0044614216846FEF7BFFE1349C6
:1014F0002068884220D112480021026842F48052BC
:101500000260006800F4805005900D4814380268AD
:1015100042F001020260006800F001000590E02046
:1015200000900220CDE901010320039005200490E2
:1015300069460448FFF7AAFB06B010BD0030014021
:1015400044380240000002402DE9F84F044690F86C
:1015500050000026994617460D4601280DD04FF041
:10156000010B84F850B0FFF763FC804694F85100FB
:10157000B246012804D0022694E00220BDE8F88F8C
:10158000002D7BD0002F79D0032084F85100C4F8BF
:1015900054A02563A786E786C4F838A0A4F83CA029
:1015A000A4F83EA0C4F844A0C4F840A0A068B0F5D8
:1015B000004F04D12068016841F480410160206837
:1015C0000168490603D4016841F040010160E06808
:1015D000B0F5006F606804D030B3E08E012823D0EE
:1015E0003EE010B1E08E01281AD135F8021B2068C8
:1015F00005E020688168890706D535F8021BC160BF
:10160000E08E401EE0860BE0B9F1000F34D0B9F156
:10161000FF3F05D0FFF70CFCA0EB080149452BD29A
:10162000E08E0028E5D11EE0216815F8010B087353
:1016300006E020688168890706D515F8011B01734B
:10164000E08E401EE0860BE0B9F1000F14D0B9F136
:10165000FF3F05D0FFF7ECFBA0EB080149450BD29B
:10166000E08E0028E5D14B46012202212046CDF82C
:10167000008000F09AF810B1032613E011E0424612
:101680004946204600F081F818B101262020606507
:1016900008E0A06818B92068C16880680090606D93
:1016A00000B1012684F851B084F850A0304665E7B7
:1016B00010B5401EB0F1807F01D3012010BD4FF066
:1016C000E02460610F21601700F04EF80020A06157
:1016D00007202061002010BDFEE700007FB5002438
:1016E00010480094019402940D49039401604FF452
:1016F0008031C0E90114046184610B490462C0E9CE
:101700000A140125C460C56145610463FFF7A1F9AE
:10171000CDE90045694603480294FFF7EDF87FBD27
:1017200000200140100000200100000F0C480B4970
:101730004FF4007201604FF48271416000218160BA
:10174000C1600161C0E905123822C0E90721416288
:1017500081620A21C162FFF783BE000000300140B0
:1017600058000020FEE770470907090E002806DA36
:1017700000F00F0000F1E02080F8141D704700F128
:10178000E02080F800147047704738B50B4600928F
:1017900004460022802100F008F8002804D0606D83
:1017A00040F020006065032038BD2DE9F0411D4662
:1017B00017460E460446DDF8188035E0681C33D025
:1017C0002DB1FFF735FBA0EB0800A8422CD3206811
:1017D000416821F0E00141606068B0F5827F0BD183
:1017E000A068B0F5004F02D0B0F5806F04D120683A
:1017F000016821F040010160A06AB0F5005F0AD1E4
:10180000206801684DF6FF72114001602068016890
:1018100041F400510160012084F85100002084F857
:1018200050000320BDE8F0812068806836EA00009F
:1018300004D00020B842C1D10020F3E70120F9E72D
:101840007047000010B50446642301221149124874
:10185000FFF77AFE74B1012C11D0022C14D0032CA6
:1018600017D10C4964230122091DBDE810400A4824
:10187000FFF76ABE074964230122491CF5E70549C1
:1018800064230122891CF0E7024964230122C91C58
:10189000EBE710BD791B00085800002013B50C467B
:1018A0006423012214491548FFF74EFE012C06D08F
:1018B000022C09D0032C15D0042C0CD117E00E49B2
:1018C00064230122491C03E00B4964230122891C83
:1018D0000A48FFF739FE6423012269460748FFF7EB
:1018E00033FE1CBD044964230122C91CF0E70249F0
:1018F00064230122091DEBE77E1B0008580000202D
:1019000070B5042504460A26B4FBF6F006FB104029
:1019100029466D1EFFF7C2FFB4FBF6F4002DF3D18C
:1019200070BD0000DFED040A20EE200ABCEEC00A04
:1019300010EE100AFFF7E4BF0000C842FFF77EBABE
:1019400030B593B034216846FEF790FC14210DA801
:10195000FEF78CFC1A480025016841F080510160B7
:10196000006800F0805012901648016821F4404150
:1019700041F4804101600068022400F4404012906C
:10198000012003901020009406940490CDE90750A4
:101990004FF4A87009900420CDE90A0468460C941D
:1019A000FFF7BCFB0DA90F2081E83100E002CDE973
:1019B000100502210DA8FFF7CFFA13B030BD0000CB
:1019C00040380240007000401048016841F4700146
:1019D00001600F48016841F0010101600C4A0021DB
:1019E0000832116002680B4B1A400260031D0A4A5C
:1019F0001A60026822F48022026005480C300160FF
:101A000002495806803908607047000088ED00E000
:101A100000380240FFFFF6FE10300024FEE702E02F
:101A200008C8121F08C1002AFAD170477047002069
:101A300001E001C1121F002AFBD1704710B51948FF
:101A40002DED068B9FED168AFFF7B0F80A21154899
:101A5000FFF75AF89FED149B9FED15AB002411483A
:101A6000FEF7F4FF80B2FEF794FD53EC192BFEF75E
:101A7000AFFC53EC1A2BFEF71DFDFEF7AAFD00EE9E
:101A8000100A022038EE008AFFF7EEF8641C642C7E
:101A9000E5DBDFED090A88EE200ABDEC068B10BD00
:101AA00000000000100000206666666666660A4058
:101AB0000000000000FEAF400000C84210B510EE6C
:101AC000100AFEF773FD9FED101B53EC112BFEF770
:101AD00079FCFEF77EFD00EE100AB5EEC00AF1EECD
:101AE00010FA01D29FED0A0A10EE100AFEF75EFD11
:101AF0009FED081B53EC112BFEF76AFCFEF769FD06
:101B000000EE100A10BD0000666666666666E23F7B
:101B1000000000003333333333935F402DED028BED
:101B200082B0FFF793F9FFF70BFF1148016841F00E
:101B300001010160006800F001000090FFF7F6FD70
:101B4000FFF7CCFDFEF7CCFE9FED0A8AB0EE480A07
:101B5000FFF7E8FE0220FFF775FE8DED008A00BF5B
:101B6000FFF76CFFFFF7AAFFFFF7DCFEF8E70000C6
:101B70003038024000000000767708040200790047
:101B8000010203000000000000000001020304063F
:101B900007080900B41B0008000000201000000026
:101BA0001E1A0008C41B000810000020A00400003A
:101BB0002E1A0008010000001000000000000000C4
:041BC0000024F40009
:04000005080001C529
:00000001FF
