:020000040800F2
:10000000B0040020D90100082B1100089D10000841
:100010002911000809040008DD1300080000000091
:1000200000000000000000000000000005120008B1
:1000300021040008000000004D110008FB12000818
:10004000F3010008F3010008F3010008F3010008C0
:10005000F3010008F3010008F3010008F3010008B0
:10006000F3010008F3010008F3010008F3010008A0
:10007000F3010008F3010008F3010008F301000890
:10008000F3010008F3010008F3010008F301000880
:10009000F3010008F3010008F3010008F301000870
:1000A000F3010008F3010008F3010008F301000860
:1000B000F3010008F3010008F3010008F301000850
:1000C000F3010008F3010008F3010008F301000840
:1000D000F3010008F3010008F3010008F301000830
:1000E000F3010008F3010008F3010008F301000820
:1000F000F3010008F3010008F3010008F301000810
:10010000F3010008F3010008F3010008F3010008FF
:10011000F3010008F3010008F3010008F3010008EF
:10012000F3010008F3010008F3010008F3010008DF
:10013000F30100080000000000000000F3010008C7
:10014000F3010008F3010008F3010008F3010008BF
:10015000F3010008F3010008F3010008F3010008AF
:10016000F3010008F3010008F3010008F30100089F
:10017000F3010008F3010008F3010008000000008B
:1001800000000000F3010008000000000000000073
:10019000F30100080000000000000000F301000867
:1001A000000000000000000000000000F301000853
:1001B000F3010008F3010008F3010008F30100084F
:1001C000F3010008DFF80CD000F07AF8004800478F
:1001D000FD130008B0040020064880470648004789
:1001E000FEE7FEE7FEE7FEE7FEE7FEE7FEE7FEE7E7
:1001F000FEE7FEE789130008C50100082DE9F05F5E
:100200000546002092469B46884606468146402485
:100210001BE0284641464746224600F041F8534637
:100220005A46C01A914110D311461846224600F092
:1002300028F82D1A67EB01084F46224601200021BD
:1002400000F01FF817EB00094E41201EA4F1010435
:10025000DFDC484631462A464346BDE8F09FD2B22D
:1002600001E000F8012B491EFBD270470022F6E79F
:1002700010B513460A4604461946FFF7F0FF20461C
:1002800010BD202A04DB203A00FA02F1002070475A
:100290009140C2F1200320FA03F3194390407047C4
:1002A000202A04DB203A21FA02F00021704721FACB
:1002B00002F3D040C2F12002914008431946704732
:1002C000064C074D06E0E06840F0010394E80700A3
:1002D00098471034AC42F6D3FFF778FF7C1400083F
:1002E0009C140008454910B54A6822F440324A601F
:1002F0004A6843681A434A6001684A6822F4807277
:100300004A6001684A68036942EA03224A60016858
:100310004A6822F040724A6001684A6883681A435A
:100320004A6001688A6822F400628A6001688A680B
:10033000C3681A438A60816A6FF07062D1420168B3
:100340008A6822F070628A6001688A680CD0836AC9
:100350001A438A6001688A6822F040528A60016804
:100360008A68C36A1A4301E022F040528A60016839
:100370008A6822F002028A6001688A68836942EA18
:1003800043028A60016A002901684A680FD042F47A
:1003900000624A6001684A6822F460424A6001686B
:1003A0004A68174C436A04EB43331A4301E022F4D2
:1003B00000624A600168CA6A22F47002CA62016877
:1003C000CA6A838B0F4C04EB03531A43CA62016859
:1003D0008A6822F400728A6001688A68036B42EAC4
:1003E00043228A6001688A6822F480628A60016818
:1003F0008A68406942EA8020886010BD002301407D
:1004000000E0FFFF0000F0FFFEE700006423012290
:100410000149024800F07ABD60140008580000202D
:100420007047000078B50024009490F83C20012A21
:1004300019D0012280F83C200A6807230568092AA0
:1004400013D9EE680A3A02EB420293409E43EE60F3
:100450000A788B680A3A02EB420293400268D56838
:100460002B43D36010E0022078BD2E6902EB4202DC
:1004700093409E432E610A788B6802EB42029340C0
:10048000026815692B4313614A681F23072A13D298
:1004900005686E6B521E02EB820293409E436E63B0
:1004A0000B790A885B1E92B203EB83039A400368C0
:1004B0005D6B2A435A6327E005680D2A12D22E6B22
:1004C000D21F02EB820293409E432E630B790A886F
:1004D000DB1F92B203EB83039A4003681D6B2A4330
:1004E0001A6311E0EE6A0D3A02EB820293409E43DA
:1004F000EE620B790A880D3B92B203EB83039A40BC
:100500000368DD6A2A43DA62174B0568154A9D4283
:1005100006D10D68122D03D1556845F4800555604C
:1005200005689D4219D1114D0B68AB4201D0112BCA
:1005300013D1536843F4000353600968A9420CD1F6
:100540000B490C4A0968B1FBF2F101EB810149004A
:1005500000E0491E00910029FBD180F83C400020BA
:1005600078BD00000023014000200140120000106F
:100570000C00002040420F0070B504004FF0000551
:1005800003D0206C002610B107E0012070BD666426
:1005900084F83C60204600F019F8206CC00610D4A6
:1005A000206C20F4885040F0020020642046FFF7C1
:1005B00099FE6664206C20F0020040F00100206487
:1005C00000E0012584F83C60284670BD10B586B077
:1005D000044614216846FFF749FE11492068884205
:1005E0001CD110480021026842F480720260006849
:1005F00000F4807005900B481438026842F0010244
:100600000260006800F001000590012000900320C6
:10061000CDE901016946044800F01AF806B010BDA2
:1006200000200140443802400000024070B50446FA
:1006300000F0E0F80546601C02D00448007804444D
:1006400000F0D8F8401BA042FAD370BD0000002093
:100650002DE9F84FDFF874B100224FF001084FF098
:10066000030A4FF00F090BF1040E00BF0B6808FAE4
:1006700002F42340A3426ED14D68022D01D0122D09
:100680000ED1D50800EB850CDCF820505607F70E8C
:1006900009FA07F6B5430E69BE402E43CCF8206038
:1006A000066855000F790AFA05FC07F0030726EAE9
:1006B0000C06AF40374307604E68012E05D0022E6E
:1006C00003D0112E01D0122E0ED18668CF6826EAF3
:1006D0000C06AF40374387604668A6430C79C4F3E5
:1006E0000014944034434460C4688E6824EA0C04C7
:1006F000AE402643C6604C68E40060D5344C2568A3
:1007000045F480452560246822F0030504F4804404
:100710000094304C2E19D6F8084895072F0F09FA87
:1007200007F5AC432C4DA84201D100251FE02B4D0D
:10073000A84201D101251AE0294DA84201D1022584
:1007400015E0284DA84201D1032510E0264DA8420E
:1007500002D104250BE032E0244DA84201D1052549
:1007600005E0234DA84201D1062500E00725BD4044
:100770002543C6F80858DBF800405D464E689C43A8
:10078000F60300D51C432C60DEF8004075464E6829
:100790009C43B60300D51C432C600C4D08352C68D7
:1007A0004E689C43F60200D51C432C60074D0C3567
:1007B0002C684E689C43B60200D51C432C60521C2A
:1007C000102AFFF453AFBDE8F88F0000003C014051
:1007D0004438024000300140000002400004024062
:1007E00000080240000C02400010024000140240C9
:1007F0000018024001488068704700000000002097
:10080000024881680278114481607047000000202E
:100810000B4810B5016841F400710160016841F4B2
:1008200080610160016841F480710160032000F083
:1008300063F8002000F006F800F024F8002010BD56
:10084000003C024070B50D4D04464FF47A71287893
:10085000B1FBF0F00A490968B1FBF0F000F00AFCC6
:1008600048B9102C07D200222146501E00F024F86F
:1008700000206C6070BD012070BD000000000020F1
:100880000C0000200B4882B0016841F480410160F7
:10089000006800F4804000900648001F016841F0A5
:1008A00080510160006800F080500090072002B085
:1008B00000F022B844380240F0B40E4B1B680C46DE
:1008C000C3F30223C3F10705042D00D90425191D24
:1008D000072901D2002300E0DB1E012606FA05F1FC
:1008E000491E214099409E40761E16403143F0BC7F
:1008F00000F01CBC0CED00E0064900F0070208689F
:100900004FF6FF03184040EA0220034A10430860F4
:10091000704700000CED00E00000FA052DE9F047FB
:100920000E46050065D0DFF81481D8F80000F7B254
:1009300000F00F00B04207D288F80070D8F800002D
:1009400000F00F00B04254D128683D4C810712D509
:10095000400703D5206840F4E05020602878000765
:1009600003D5206840F4604020602068A96820F02A
:10097000F000084320602878C0072DD0304968680F
:100980000839012812D0022813D0032811D0096891
:10099000890700292DDA216821F003010143216034
:1009A000FFF728FF814641F2883A0EE00968890383
:1009B000EFE709688901ECE7FFF71CFFA0EB0901ED
:1009C000514502D90320BDE8F0872068696800F02E
:1009D0000C00B0EB810FEFD1D8F80010404601F0C9
:1009E0000F01B14207D90770006800F00F00B04254
:1009F00001D00120E7E72878400705D52068E9689D
:100A000020F4E050084320602878000706D52068CD
:100A1000296920F4604040EAC100206000F016F827
:100A20002168084AC1F30311515CC84006490860B7
:100A30000020FFF707FF0020C5E70000003C024050
:100A4000083802406B1400080C000020224810B542
:100A5000006810F00C02214815D04110042A11D072
:100A60001D4C241F082A0FD00C2A0CD122682368A1
:100A700002F03F025B0221D52068C0F38810A0FB82
:100A8000010120E0084610BD2268236802F03F0201
:100A90005B0205D52068C0F38810A0FB010104E0CB
:100AA0002168C1F38811A1FB00010023FFF7A6FB19
:100AB0002168C1F30141491C49000AE02168C1F3E2
:100AC0008811A1FB00010023FFF798FB2168C1F307
:100AD0000271B0FBF1F010BD083802400024F400B0
:100AE0002DE9F84F0546DFF828B30078ABF104078D
:100AF000C007A7F1040451D0DBF800105846C1F339
:100B0000810101290FD00168C1F38101022902D1BD
:100B10003968490207D40068C0F38100032809D16D
:100B20003868400206D52068800337D568680028F9
:100B300072D033E06868B0F5803F10D0B0F5A02FD8
:100B4000206810D020F480302060206820F48020BD
:100B500020606868A8B1FFF74DFE06460DE02068EA
:100B600040F48030F4E740F480202060F7E700BFD5
:100B7000FFF740FE801B642878D820688003F7D5F3
:100B80000CE0FFF737FE064605E000BFFFF732FE38
:100B9000801B6428F0D820688003F7D42878DFF819
:100BA000749280074FF0000A46D5DBF800105846D3
:100BB00011F00C0F0FD00168C1F38101022902D19D
:100BC0003968490207D50068C0F38100032809D1BC
:100BD0003868400206D42068800715D5E8680128E7
:100BE0001AD111E0E868C0B10120C9F80000FFF790
:100BF00001FE064605E000BFFFF7FCFD801B022852
:100C0000BAD820688007F7D52068296920F0F80055
:100C100040EAC10020600FE0F7E0C9F800A0FFF74C
:100C2000E9FD064605E000BFFFF7E4FD801B022852
:100C30001CD820688007F7D42878000727D5DFF86C
:100C4000D0817548696908F16C0881B101210160A2
:100C5000FFF7D0FD064604E0FFF7CCFD801B02281D
:100C600004D8D8F800008007F6D510E089E0C0F875
:100C700000A0FFF7BFFD064605E000BFFFF7BAFD85
:100C8000801B02287DD8D8F800008007F6D4287889
:100C9000400769D55E484FF0000838300068C00052
:100CA0000BD45B483830016841F080510160006826
:100CB0004FF0010800F080500090584E3068C00599
:100CC00011D4306840F480703060FFF793FD0090DD
:100CD00006E000BFFFF78EFD0099401A022850D8A9
:100CE0003068C005F6D54A4EA868683601280FD08E
:100CF0000528306810D020F001003060306820F006
:100D000004003060A868B8B1FFF774FD00900FE0F0
:100D1000306840F00100F4E740F004003060F7E78D
:100D2000FFF768FD0099411A41F28830814264D88A
:100D300030688007F4D50EE0FFF75CFD009007E017
:100D4000FFF758FD0099411A41F28830814254D88A
:100D500030688007F4D4B8F1000F05D02C48383043
:100D6000016821F080510160A869A8B3DBF8001088
:100D7000C1F38101022948D00228C9F860A005D03A
:100D800000E03AE0FFF736FD054639E0FFF732FDB7
:100D9000064604E0FFF72EFD801B02282DD82068B0
:100DA0008001F7D4F5E907010843E9681C4A4908BE
:100DB00002EB0141AA6841EA82110843297C40EA1A
:100DC0000160297D40EA017038600120C9F86000A7
:100DD000FFF710FD054606E015E000BFFFF70AFD2E
:100DE000401B022809D820688001F7D50BE000BF1E
:100DF000FFF700FD401B022802D90320BDE8F88F51
:100E000020688001F4D40020F8E70120F6E7000014
:100E10000838024000004742800E47420070004000
:100E20000000FFFF70B5040005D00025A56294F80E
:100E3000510010B106E0012070BD84F850502046EA
:100E400000F030F8022084F851002068016821F099
:100E500040010160D4E901010843D4E903121143C0
:100E6000084361690843218B01F400710843E1697B
:100E70000843216A0843A16A084321680860A06901
:100E8000042101EA1040616A084321684860206833
:100E9000C16921F40061C1616565012084F85100D8
:100EA000002070BD10B586B0044614216846FFF7D7
:100EB000DDF913492068884220D1124800210268D8
:100EC00042F480520260006800F4805005900D48A2
:100ED0001438026842F001020260006800F001006C
:100EE0000590E02000900220CDE90101032003904D
:100EF0000520049069460448FFF7AAFB06B010BD20
:100F00000030014044380240000002402DE9F84F13
:100F1000044690F850000026994617460D460128D1
:100F20000DD04FF0010B84F850B0FFF763FC804602
:100F300094F85100B246012804D0022694E0022021
:100F4000BDE8F88F002D7BD0002F79D0032084F8E6
:100F50005100C4F854A02563A786E786C4F838A0DA
:100F6000A4F83CA0A4F83EA0C4F844A0C4F840A053
:100F7000A068B0F5004F04D12068016841F48041B9
:100F8000016020680168490603D4016841F040010E
:100F90000160E068B0F5006F606804D030B3E08EA7
:100FA000012823D03EE010B1E08E01281AD135F897
:100FB000021B206805E020688168890706D535F89E
:100FC000021BC160E08E401EE0860BE0B9F1000F0D
:100FD00034D0B9F1FF3F05D0FFF70CFCA0EB0801BE
:100FE00049452BD2E08E0028E5D11EE0216815F896
:100FF000010B087306E020688168890706D515F89B
:10100000011B0173E08E401EE0860BE0B9F1000F7A
:1010100014D0B9F1FF3F05D0FFF7ECFBA0EB0801BE
:1010200049450BD2E08E0028E5D14B460122022132
:101030002046CDF8008000F09AF810B1032613E0A6
:1010400011E042464946204600F081F818B10126D9
:101050002020606508E0A06818B92068C168806831
:101060000090606D00B1012684F851B084F850A062
:10107000304665E710B5401EB0F1807F01D30120F6
:1010800010BD4FF0E02460610F21601700F04EF8B2
:101090000020A06107202061002010BDFEE70000B5
:1010A0007FB5002410480094019402940D490394E4
:1010B00001604FF48031C0E90114046184610B497F
:1010C0000462C0E90A140125C460C5614561046376
:1010D000FFF752FACDE90045694603480294FFF74D
:1010E000A1F97FBD00200140100000200100000F89
:1010F0000C480B494FF4007201604FF4827141605B
:1011000000218160C1600161C0E905123822C0E997
:101110000721416281620A21C162FFF783BE00009C
:101120000030014058000020FEE770470907090E13
:10113000002806DA00F00F0000F1E02080F8141D0E
:10114000704700F1E02080F800147047704738B510
:101150000B46009204460022802100F008F8002887
:1011600004D0606D40F020006065032038BD2DE99B
:10117000F0411D4617460E460446DDF8188035E05E
:10118000681C33D02DB1FFF735FBA0EB0800A84257
:101190002CD32068416821F0E00141606068B0F51F
:1011A000827F0BD1A068B0F5004F02D0B0F5806F00
:1011B00004D12068016821F040010160A06AB0F507
:1011C000005F0AD1206801684DF6FF72114001608E
:1011D0002068016841F400510160012084F8510049
:1011E000002084F850000320BDE8F081206880686A
:1011F00036EA000004D00020B842C1D10020F3E755
:101200000120F9E77047000010B50446642301226D
:1012100011491248FFF77AFE74B1012C11D0022C4B
:1012200014D0032C17D10C4964230122091DBDE8F9
:1012300010400A48FFF76ABE074964230122491C8F
:10124000F5E7054964230122891CF0E7024964237C
:101250000122C91CEBE710BD6114000858000020F2
:1012600013B50C466423012214491548FFF74EFEBE
:10127000012C06D0022C09D0032C15D0042C0CD143
:1012800017E00E4964230122491C03E00B49642343
:101290000122891C0A48FFF739FE642301226946AE
:1012A0000748FFF733FE1CBD044964230122C91C13
:1012B000F0E7024964230122091DEBE766140008E8
:1012C0005800002070B5042504460A26B4FBF6F049
:1012D00006FB104029466D1EFFF7C2FFB4FBF6F473
:1012E000002DF3D170BDF2EE040A20EE200ABCEE10
:1012F000C00A10EE100AFFF7E5BFFFF781BA000041
:1013000030B593B034216846FEF7B0FF14210DA824
:10131000FEF7ACFF1A480025016841F080510160DA
:10132000006800F0805012901648016821F4404196
:1013300041F4804101600068022400F440401290B2
:10134000012003901020009406940490CDE90750EA
:101350004FF4A87009900420CDE90A0468460C9463
:10136000FFF7BEFB0DA90F2081E83100E002CDE9B7
:10137000100502210DA8FFF7D1FA13B030BD00000F
:1013800040380240007000401048016841F470018C
:1013900001600F48016841F0010101600C4A002121
:1013A0000832116002680B4B1A400260031D0A4AA2
:1013B0001A60026822F48022026005480C30016045
:1013C00002495806803908607047000088ED00E047
:1013D00000380240FFFFF6FE10300024FEE702E076
:1013E00008C8121F08C1002AFAD1704770470020B0
:1013F00001E001C1121F002AFBD1704708B5FFF7B9
:1014000007FAFFF77DFF1448016841F00101016010
:10141000006800F001000090FFF76AFEFFF740FE51
:10142000FEF7F4FF9FED0D0AFFF75DFF0120FFF7C8
:10143000EBFE0020FFF7E8FE002442F20F754FF4A8
:101440007A762046FFF73EFF641CAC4200D10024B0
:101450003046FFF7EBF8F4E73038024000000000B8
:101460007677080402007900010203000000000002
:101470000000000102030406070809009C1400088C
:101480000000002010000000DE130008AC1400086B
:1014900010000020A0040000EE130008010000006E
:0C14A00010000000000000000024F40018
:04000005080001C529
:00000001FF
